:020000040800F2
:1000000068480020B9030008915800089358000878
:10001000975800089B5800089F58000800000000EF
:100020000000000000000000000000004501000882
:10003000A35800080000000089010008832600087A
:10004000D3030008D3030008D3030008D303000838
:10005000D3030008D3030008D3030008D303000828
:10006000D3030008D3030008D3030008D303000818
:10007000D3030008D3030008D3030008D303000808
:10008000D3030008D3030008D3030008D3030008F8
:10009000D3030008D3030008D3030008D3030008E8
:1000A000D3030008D3030008D3030008D3030008D8
:1000B0004B5900087B590008635B0008D303000814
:1000C000D3030008D3030008D3030008D3030008B8
:1000D000D3030008EB5B0008CD5C0008D3030008E5
:1000E000A5580008D3030008D3030008D303000871
:1000F000D3030008D3030008D3030008D303000888
:10010000D3030008D3030008D75B0008D30300081B
:10011000D3030008D3030008D3030008D303000867
:10012000D3030008D3030008D3030008D303000857
:10013000DFF80CD005F04AFE004800474F58000891
:1001400068480020224B19680868B0E8F00F80F377
:100150000988BFF36F8F4FF0000080F311884EF0D5
:100160000D0E70470000000006480068006880F32C
:10017000088862B661B6BFF34F8FBFF36F8F00DFA1
:1001800000BF00BF08ED00E0EFF30980BFF36F8F01
:100190000F4B1A6820E9F00F106008B54FF0BF0050
:1001A00080F31188BFF34F8FBFF36F8F02F0EAFE29
:1001B0004FF0000080F31188BDE808401968086816
:1001C000B0E8F00F80F30988BFF36F8F704700BF6E
:1001D00044000020EFF30580704700000CB50020BC
:1001E000019000906B48006840F4803069490860D5
:1001F00000BF6848006800F4003000900198401C7F
:100200000190009818B90198B0F5A06FF1D161483C
:10021000006810F4003F02D00120009001E00020AF
:1002200000900098012842D15B48006840F010001F
:10023000594908600846006820F003000860084635
:10024000006840F002000860524840685149486028
:100250000846406848600846406840F4806048604E
:100260000846406820F47C1048600846406840F426
:10027000E81048600846006840F08070086000BFE1
:100280004448006810F0007FFAD04248406820F0EF
:100290000300404948600846406840F0020048605A
:1002A00000BF3C48406800F00C000828F9D10CBDA4
:1002B00010B5FFF793FF10BD10B53648006840F049
:1002C0000100344908600846406834490840314913
:1002D000486008460068324908402E4908600846D0
:1002E000006820F4802008600846406820F4FE0082
:1002F00048604FF41F008860FFF7DAFF4FF000609E
:100300002849086010BD10B5002100200022214BB3
:100310005B6803F00C0121B1042906D0082928D11B
:1003200007E0214B214C236027E01F4B1F4C23602B
:1003300023E0184B5B6803F47010164B5B6803F402
:100340008032022303EB904022B9194B4343174CF0
:1003500023600DE00F4B5B6813F4003F04D0144B97
:100360004343124C236003E00F4B43430F4C236085
:1003700003E00D4B0D4C236000BF00BF054B5B68D5
:10038000C3F303130B4CE15C084B1B68CB40074CD9
:10039000236010BD00100240002002400000FFF862
:1003A000FFFFF6FE08ED00E000127A0000000020DA
:1003B00000093D0004000020064880470648004729
:1003C000FEE7FEE7FEE7FEE7FEE7FEE7FEE7FEE705
:1003D000FEE7FEE7B9020008310100083149014398
:1003E000314A1160704770B5002100230F22C47894
:1003F0000CB32D4C246804F4E064C4F5E064210AD5
:10040000C1F10403CA40447804FA03F1847814402B
:1004100021430901254C0678A155047804F01F05F5
:100420000124AC4005786D114FF0E02606EB850500
:10043000C5F8004109E0047804F01F050124AC4030
:100440001B4D0678761145F8264070BD194A0A40C2
:100450000243154B1B1F1A60704739B1124A121D17
:1004600012680243104B1B1D1A6006E00E4A121D53
:10047000126882430C4B1B1D1A607047042808D178
:100480004FF0E021096941F004014FF0E0221161D1
:1004900007E04FF0E021096921F004014FF0E0226C
:1004A000116170470000FA050CED00E000E400E087
:1004B00080E100E080FFFF1F10B50446FA48844247
:1004C00008D10121401500F025FF0021601500F042
:1004D00021FF17E0F548844208D10121001500F002
:1004E00019FF0021201500F015FF0BE0F0488442B1
:1004F00008D10121C80300F00DFF00214FF4004096
:1005000000F008FF10BD30B50246002000235068FF
:10051000E84C20400D790C6844EA052420435060E3
:100520009068E54C2040D1E902542C434D7944EACF
:10053000450420439060D06A20F470000C7C641E57
:10054000E4B2234340EA0350D06230BD0021016091
:10055000017141718160C16001210174704721B155
:10056000826842F00102826003E0826822F00102A8
:100570008260704721B1826842F48072826003E039
:10058000826822F480728260704710B50023CBB27B
:100590001AB144681C43446002E044689C434460D0
:1005A00010BD816841F0080181607047014600205C
:1005B0008A6812F0080F01D0012000E00020704787
:1005C000816841F0040181607047014600208A681B
:1005D00012F0040F01D0012000E00020704721B18B
:1005E000826842F4A002826003E0826822F4A002E2
:1005F00082607047014600208A6812F4800F01D0A3
:10060000012000E00020704710B50A4600210023B9
:10061000416821F46041531E41EA4331416010BDFD
:1006200021B1426842F40062426003E0426822F471
:10063000006242607047F0B504460D46002000217C
:10064000092D11DDE068A5F10A0606EB460707262D
:1006500006FA07F18843A5F10A0606EB460603FAF7
:1006600006F10843E0600CE0206905EB450707262A
:1006700006FA07F1884305EB450603FA06F108433D
:100680002061072A0FDA606B561E06EB86071F26CD
:1006900006FA07F18843561E06EB860605FA06F1B0
:1006A0000843606322E00D2A0FDA206BD61F06EBA9
:1006B00086071F2606FA07F18843D61F06EB860633
:1006C00005FA06F10843206310E0E06AA2F10D0686
:1006D00006EB86071F2606FA07F18843A2F10D06EE
:1006E00006EB860605FA06F10843E062F0BD21B18B
:1006F000826842F48012826003E0826822F48012F1
:10070000826070470146C86C80B2704766484C30C2
:100710000068704721B1426842F48062426003E0A1
:10072000426822F480624260704721B1426842F41C
:100730008052426003E0426822F480524260704777
:100740000A460021816821F4E0411143816070472D
:1007500021B1826842F40042826003E0826822F4A0
:1007600000428260704721B1826842F402128260C6
:1007700003E0826822F40212826070470146002082
:100780008A6812F4001F01D0012000E000207047A9
:10079000F0B504461546002000220026092911DD87
:1007A000E068A1F10A0707EB470C072707FA0CF2EC
:1007B0009043A1F10A0707EB470703FA07F210433A
:1007C000E0600CE0206901EB410C072707FA0CF20E
:1007D000904301EB410703FA07F210432061A06B3D
:1007E000C0F30156EF1C06F1010CA7EB0C0707EB59
:1007F000870C1F2707FA0CF29043EF1C06F1010C3F
:10080000A7EB0C0707EB870701FA07F21043A06379
:10081000F0BD10B50A4600210023816B21F4401180
:10082000531E41EA0351816310BD08B500230093B4
:100830000090009B0B440093009B1A6008BD08B514
:10084000024600200090009201F12800009B18440D
:1008500000900098006880B208BD0A4600214168F7
:10086000164B1940114341607047416282627047E4
:100870000A460021416821F01F0111434160704781
:1008800040B109490831096841F40001064A0832BB
:10089000116007E004490831096821F40001024AA7
:1008A0000832116070470000002401400028014018
:1008B000003C0140FFFEF0FFFDF7F1FFFFFD3FFFB1
:1008C0000246002013680B4201D0012000E0002006
:1008D0007047CA430260704770B50246002000238B
:1008E00000240B125568CEB205EA060415681D42B5
:1008F00002D00CB1012000E0002070BD00220A12DD
:10090000D34303607047000001684FF6FE72114048
:1009100001600021016041608160C1608C498842B2
:1009200008D18B490839496841F00F01884A083AD3
:1009300051608AE086491431884208D184490839D7
:10094000496841F0F001824A083A51607DE08049EF
:100950002831884208D17E490839496841F47061DC
:100960007B4A083A516070E079493C31884208D1AD
:1009700077490839496841F47041754A083A51602D
:1009800063E073495031884208D171490839496898
:1009900041F470216E4A083A516056E06C49643166
:1009A000884208D16A490839496841F47001684AA7
:1009B000083A516049E066497831884208D1644973
:1009C0000839496841F07061614A083A51603CE079
:1009D0006049884206D1011F096841F00F01021FDA
:1009E000116032E05B491431884208D15949091F2E
:1009F000096841F0F001574A121F116025E055497E
:100A00002831884208D15349091F096841F47061AF
:100A1000504A121F116018E04E493C31884208D1FB
:100A20004C49091F096841F470414A4A121F11607C
:100A30000BE048495031884207D14649091F0968EF
:100A400041F47021434A121F1160704710B5002213
:100A5000026847F6F0739A430C6A8B6823430C696B
:100A600023434C6923438C692343CC6923434C6A59
:100A700023438C6A23431A430260CB6843600B68AC
:100A800083604B68C36010BD0021016041608160DC
:100A9000C160016141618161C16101624162816244
:100AA000704721B1026842F00102026004E002686E
:100AB0004FF6FE731A40026070471AB103680B4389
:100AC000036002E003688B43036070474160704736
:100AD0000146486880B2704701460020002211F0AC
:100AE000805F03D01B4B083B1A6802E0184B083BA1
:100AF0001A680A4201D0012000E00020704710F07F
:100B0000805F03D01349091F086002E010490839CB
:100B10004860704701460020002211F0805F03D03A
:100B20000C4B083B1A6802E0094B083B1A680A4262
:100B300001D0012000E00020704710F0805F03D05A
:100B40000449091F086002E00149083948607047FC
:100B50000800024008040240002044490860091DC2
:100B60000860091D0860091D086041483F491431AB
:100B70000860704700213D498279002A3AD00A4630
:100B8000126803689A430B461A600A1D12680368CC
:100B90009A430B1D1A60027911440A6803681A43CC
:100BA0000A60324A0832126803689A432F4B0833AE
:100BB0001A601A1D126803689A432C4B0C331A6092
:100BC0004279102A0ED11A1F126803681A43274B64
:100BD00008331A601A1D126803681A43234B0C333A
:100BE0001A600DE02149427911440A6803681A43EA
:100BF0000A6005E0027911440A6803689A430A60B2
:100C000070470021016001710C2141710021817147
:100C100070471649103109680143144A10321160B7
:100C2000704701460020114A143212680A4201D06E
:100C3000012000E0002070470C4914310860704723
:100C4000014600200022094B1B6803EA0102074B02
:100C500014331B680B4202D00AB1012000E00020CF
:100C600070470249143108607047000000040140D9
:100C7000FFFF0F0010B50446CA48844208D1012185
:100C8000042000F047FB0021042000F043FB46E075
:100C9000C548844208D10121082000F03BFB002117
:100CA000082000F037FB3AE0C048844208D1012117
:100CB000102000F02FFB0021102000F02BFB2EE075
:100CC000BB48844208D10121202000F023FB0021F1
:100CD000202000F01FFB22E0B648844208D1012109
:100CE000402000F017FB0021402000F013FB16E02D
:100CF000B148844208D10121802000F00BFB002183
:100D0000802000F007FB0AE0AC48844207D10121B3
:100D1000801500F0FFFA0021A01500F0FBFA10BDCD
:100D200010B50121084600F0F5FA0021012000F07D
:100D3000F1FA10BD2DE9F041024600250026002001
:100D400000230024002791F803C00CF00F0591F850
:100D500003C01CF0100F03D091F802C04CEA050547
:100D600091F800C0BCF1000F31D0146800202BE0D6
:100D70004FF0010C0CFA00F3B1F800C00CEA0306C6
:100D80009E4220D183004FF00F0C0CFA03F7BC43B6
:100D900005FA03FC4CEA040491F803C0BCF1280FE7
:100DA00006D14FF0010C0CFA00FCC2F814C00AE0A6
:100DB00091F803C0BCF1480F05D14FF0010C0CFABB
:100DC00000FCC2F810C0401C0828D1D31460B1F850
:100DD00000C0BCF1FF0F34DD546800202EE000F1AC
:100DE000080C4FF0010808FA0CF3B1F800C00CEA47
:100DF00003069E4221D183004FF00F0C0CFA03F73B
:100E0000BC4305FA03FC4CEA040491F803C0BCF1AE
:100E1000280F05D100F1080C08FA0CF8C2F814806C
:100E200091F803C0BCF1480F07D100F1080C4FF056
:100E3000010808FA0CF8C2F81080401C0828CED32C
:100E40005460BDE8F0814FF6FF710180022181708E
:100E50000421C17070470246002093680B4201D004
:100E6000012000E0002070470146886880B270478A
:100E700002460020D3680B4201D0012000E0002090
:100E800070470146C86880B2704701617047416190
:100E900070470AB1016100E041617047C16070476D
:100EA0004FF480320A438261816182618269826982
:100EB000704702460020424B18684FF68073184076
:100EC00040EA021008433E4B186070473D49C86134
:100ED0007047F0B50A46002300240021002500F0E9
:100EE0000046B6F1004F02D1354EF16901E0344EB3
:100EF0007168C0F3034583B200F44016B6F5401F95
:100F000008D121F070612E4E766826F070662C4F65
:100F10007E6012E000F48016B6F5801F06D103262D
:100F200006FA05F4A14341F0706106E0460D360172
:100F300003FA06F6B14341F0706122B1460D360165
:100F400003FA06F6314300F00046B6F1004F02D135
:100F50001B4EF16101E01A4E7160F0BD30B5002208
:100F60008B071C0F0F2303FA04F2154B08338C1068
:100F700053F824309343124C08348D1044F8253034
:100F800023468C1053F824308C07240F00FA04F405
:100F900023430B4C08348D1044F8253030BD0A49EA
:100FA0000860704700080140000C0140001001403B
:100FB0000014014000180140001C014000200140C5
:100FC0000000014000002042DC0020420E49086081
:100FD00070470D49486070470B49886070474AF672
:100FE000AA200949086070474CF6CC4006490860C1
:100FF000704701460020044AD2680A4201D001200D
:1010000000E000207047000000300040DD4800682C
:1010100040F00100DB49086008464068DA490840B2
:10102000D849486008460068D8490840D549086052
:101030000846006820F4802008600846406820F4D4
:10104000FE0048604FF41F0088607047CD49096872
:1010500021F48031CB4A11601146096821F48021C6
:101060001160B0F5803F03D0B0F5802F0ED106E0BF
:10107000C449096841F48031C24A116007E0C1499E
:10108000096841F4A021BF4A116000E000BF00BF21
:10109000704710B501460022002300204A11012AA2
:1010A00002D1B84C236806E0022A02D1B54C236A6B
:1010B00001E0B44C636A01F01F02012494401C4219
:1010C00001D0012000E0002010BD38B500200090C4
:1010D0000024002500BF3120FFF7DBFF0546009804
:1010E000401C00900098B0F5A06F01D0002DF2D008
:1010F0003120FFF7CEFF08B1012400E00024204694
:1011000038BD014600209F4A106820F0F80040EAF0
:10111000C100106070479E49086070470246002079
:10112000984B586820F47C1042EA01031843954B11
:101130005860704796490866704701460020914AFA
:10114000506820F003000843506070478D484068A5
:1011500000F00C007047014600208A4A506820F0D9
:10116000F00008435060704701460020854A5068EF
:1011700020F4E06008435060704701460020814A37
:10118000506820F4605040EAC1005060704729B1B7
:101190007C4A527A02437B4B5A7204E0794A527A73
:1011A0008243784B5A7270477A490860704701460B
:1011B0000020744A506820F4404008435060704753
:1011C0000021754A11706F4A82F82010012802D060
:1011D000042808D103E001216F4A117004E00521C1
:1011E0006D4A117000E000BF00BF70476B49086096
:1011F00070476449096A0143624A1162704767494E
:1012000044390860704730B50021002200240023D3
:101210005C4D6D6805F00C0121B1042905D0082949
:1012200023D105E05E4D056022E05D4D05601FE0C5
:10123000544D6D6805F47012524D6D6805F480349C
:10124000022505EB92421CB9564D554305600BE053
:101250004C4D6D6815F4003F03D0524D5543056069
:1012600002E04F4D5543056002E04D4D056000BF63
:1012700000BF444D6D6805F0F00109094A4D6B5CF3
:101280000568DD4045603F4D6D6805F4E061090A81
:10129000454D6B5C4568DD4085603A4D6D6805F4F1
:1012A0006051C90A404D6B5C4568DD40C560354DF5
:1012B0006D6805F44041890B3C4D6B5CC568B5FB1E
:1012C000F3F5056130BD29B12E4A526902432D4B19
:1012D0005A6104E02B4A526982432A4B5A61704793
:1012E00029B1284A92690243264B9A6104E0254AB3
:1012F00092698243234B9A61704729B1214AD2698E
:101300000243204BDA6104E01E4AD26982431D4B3E
:10131000DA61704729B11B4AD2680243194BDA607F
:1013200004E0184AD2688243164BDA60704729B14C
:10133000144A12690243134B1A6104E0114A1269FC
:101340008243104B1A617047144940390860704756
:101350000F49C86470470B49C87170470948406A13
:1013600040F0807007494862704701460020054AF6
:1013700092680A4201D0012000E000207047014934
:1013800088727047001002400000FFF8FFFFF6FE71
:1013900000004242D80042422010024080044242F3
:1013A00000127A0000093D001400002024000020F3
:1013B00010B50446FE48844208D10121C014FFF74D
:1013C000A9FF0021E014FFF7A5FFC4E0B4F1804FAE
:1013D00008D101210846FFF7AAFF00210120FFF7ED
:1013E000A6FFB8E0F348844208D101210220FFF7AC
:1013F0009EFF00210220FFF79AFFACE0EE488442F6
:1014000008D101210420FFF792FF00210420FFF7FB
:101410008EFFA0E0E948844208D101210820FFF7AF
:1014200086FF00210820FFF782FF94E0E448844211
:1014300008D101211020FFF77AFF00211020FFF7CB
:1014400076FF88E0DF48844208D101212020FFF7A1
:101450006EFF00212020FFF76AFF7CE0DA4884421B
:1014600008D101214014FFF755FF00216014FFF758
:1014700051FF70E0D548844209D10121C804FFF72B
:1014800049FF00214FF40020FFF744FF63E0D048FC
:10149000844209D101210805FFF73CFF00214FF4E8
:1014A0008010FFF737FF56E0CA48844209D1012176
:1014B0004805FFF72FFF00214FF40010FFF72AFF28
:1014C00049E0C548844208D101214020FFF72FFFA1
:1014D00000214020FFF72BFF3DE0C048844208D1A7
:1014E00001218020FFF723FF00218020FFF71FFF4D
:1014F00031E0BB48844208D101218015FFF717FF76
:101500000021A015FFF713FF25E0B648844209D15A
:1015100001210804FFF7FEFE00214FF48030FFF7A1
:10152000F9FE18E0B048844209D101214804FFF7D0
:10153000F1FE00214FF40030FFF7ECFE0BE0AB486A
:10154000844208D101218804FFF7E4FE00214FF412
:101550008020FFF7DFFE10BD00220288944B9842E6
:101560000ED0994B98420BD0B0F1804F08D0914BE0
:10157000984205D0904B984202D0904B984204D1AB
:101580004FF68F731A404B881A438D4B984207D001
:101590008C4B984204D04FF6FF431A40CB881A4335
:1015A00002808B8883850B880385814B98420BD002
:1015B000854B984208D08B4B984205D08A4B984275
:1015C00002D08A4B984201D10B7A03860123838291
:1015D000704770B5002400220023058C4FF6FE767C
:1015E00035400584028C8388048B4FF68F752C4020
:1015F000B51E2C400D882C43751E2A400D892A43A8
:101600004D882A436A4DA8420BD06F4DA84208D09E
:10161000744DA84205D0744DA84202D0734DA84223
:1016200013D14FF6F7752A404D892A434FF6FB75C3
:101630002A408D882A434FF6FF652B404FF6FF5511
:101640002B408D892B43CD892B4383800483CD8808
:101650008586028470BD70B5002400220023058CAD
:101660004FF6EF7635400584028C8388048B48F66C
:10167000FF752C404FF6FF452C400D884FF6FF7646
:1016800006EA05252C434FF6DF752A400D8906EA48
:1016900005152A434D8806EA05152A43444DA842FC
:1016A00002D0494DA8421DD14FF67F752A404D8981
:1016B0004FF6FF7606EA05152A434FF6BF752A4016
:1016C0008D8806EA05152A434FF6FF352B404FF269
:1016D000FF752B408D8906EA85052B43CD8906EAE7
:1016E00085052B4383800483CD880587028470BDE4
:1016F00070B5002400220023058C4FF6FF663540AC
:101700000584028C8388848B4FF68F752C404FF6AE
:10171000FC752C400D882C434FF6FF552A400D894F
:101720004FF6FF7606EA05252A434D8806EA052589
:101730002A431F4DA84202D0234DA8421DD14FF28B
:10174000FF752A404D894FF6FF7606EA05252A43A4
:101750004FF6FF352A408D8806EA05252A434EF6C6
:10176000FF752B404DF6FF752B408D8906EA051558
:101770002B43CD8906EA05152B4383808483CD88CE
:101780008587028470BD70B5002200230024058C7B
:101790004EF6FF7635400584038C8488828B48F6AC
:1017A000FF752A404FF6FF452A400D8820E00000D3
:1017B000002C01400004004000080040000C0040E4
:1017C000001000400014004000340140004C014073
:1017D000005001400054014000180040001C00402F
:1017E000002000400040014000440140004801400A
:1017F0004FF6FF7606EA05252A434DF6FF752B4086
:101800000D8906EA05352B434D8806EA05352B433D
:10181000FA4DA84202D0FA4DA84208D14BF6FF7506
:101820002C408D894FF6FF7606EA85152C4384807F
:101830008283CD88A0F84050038470BD828B4FF224
:10184000FF331A408283828B4FF6FF7303EA012332
:101850001A4382837047F0B50C46154600220021DA
:101860000026078C4EF6FF7C07EA0C070784828B64
:10187000018C4FF6FF7707EA043640F6FF473A40FF
:101880004FF6FF7707EA05273A434FF6FF7707EA57
:1018900003373A43D94FB8420ED0D94FB8420BD094
:1018A000B0F1804F08D0D74FB84205D0D64FB842DC
:1018B00002D0D64FB84206D14DF6FF77394046F4F4
:1018C0008057394305E047F6FF57394044F48057C5
:1018D000394382830184F0BD828B4FF6F3731A4043
:1018E0008283828B0A4382837047F0B50C4615468B
:1018F000002200210026078C4FF6FF6C07EA0C0738
:101900000784828B018C4FF6FF7707EA04264FF697
:101910000C773A404FF6FF7707EA03172F433A4315
:10192000B64FB8420ED0B64FB8420BD0B0F1804F90
:1019300008D0B44FB84205D0B34FB84202D0B34F2D
:10194000B84206D14FF6FF57394046F48077394305
:1019500005E04FF2FF57394044F4807739438283E2
:101960000184F0BD028B4FF2FF331A400283028BD9
:101970004FF6FF7303EA01231A4302837047F0B561
:101980000C461546002200210026078C4FF6EF7CFE
:1019900007EA0C070784028B018C4FF6FF7707EAF2
:1019A000041640F6FF473A404FF6FF7707EA033741
:1019B0003A434FF6FF7707EA05273A438F4FB8427D
:1019C0000ED08F4FB8420BD0B0F1804F08D08D4F62
:1019D000B84205D08C4FB84202D08C4FB84206D1E5
:1019E0004FF6DF77394046F01007394305E04FF6F0
:1019F0005F77394044F01007394302830184F0BD1A
:101A0000028B4FF6F3731A400283028B0A43028360
:101A10007047F0B50C46154600220021068C4FF6A3
:101A2000FE773E400684028B018C4FF60C763240E6
:101A30007E1C06EA03162E433243704EB0420ED08F
:101A40006F4EB0420BD0B0F1804F08D06D4EB04217
:101A500005D06D4EB04202D06C4EB04206D14FF66A
:101A6000FD76314044F00106314305E04FF6F5764E
:101A7000314044F00106314302830184F0BD70B56A
:101A800005460C465D4885420ED05D4885420BD028
:101A9000B5F1804F08D05B48854205D05A48854251
:101AA00002D05A48854200D100E000BF208850B9DA
:101AB0002389A28861882846FFF7ABFFE188284682
:101AC000FFF79EFF25E0208804280AD12389A288F9
:101AD00061882846FFF753FFE1882846FFF742FF59
:101AE00017E0208808280AD12389A288618828461F
:101AF000FFF7FBFEE1882846FFF7EEFE09E02389A9
:101B0000A28861882846FFF7A6FEE1882846FFF7ED
:101B100095FE70BD2DE9F04105460C4600260127D3
:101B2000608808B9022600E00026A088012801D1BB
:101B3000022700E001272088A0B92389A2886188B4
:101B40002846FFF766FFE1882846FFF759FF2389FB
:101B50003A4631462846FFF712FFE1882846FFF74C
:101B600001FF13E02389A28861882846FFF707FF59
:101B7000E1882846FFF7F6FE23893A463146284693
:101B8000FFF747FFE1882846FFF73AFFBDE8F081FD
:101B90000A884B881A438B881A43CB881A430B89CF
:101BA0001A434B891A438B891A43A0F84420704783
:101BB0004FF6FF71818000210180C1804180017258
:101BC00070470021018041808180C1800181418175
:101BD0008181C18170470021018041800121818084
:101BE0000021C180018170470021018041808180F6
:101BF000C18001814181818170470000002C01403A
:101C0000003401400004004000080040000C004087
:101C100021B1028842F00102028004E002884FF6FE
:101C2000FE731A400280704731B1B0F8442042F48C
:101C30000042A0F8442005E0B0F84420C2F30E02B0
:101C4000A0F8442070471AB183890B43838102E0D6
:101C500083898B43838170478182704741EA020305
:101C6000A0F8483070471AB183890B43838102E0A2
:101C700083898B438381704701894FF6F872114045
:101C8000018170470A46002101894FF68F73194080
:101C900011430181704730B504460D462946204660
:101CA000FFF7F0FF208940F00700208130BD2DE9CB
:101CB000F04104460D4616461F46602D06D13B46B0
:101CC000012231462046FFF75AFE05E03B4601223D
:101CD00031462046FFF79DFE29462046FFF7D2FFFA
:101CE000208940F007002081BDE8F08130B50C4626
:101CF00000210189C9B24FF6FF7505EA0325154396
:101D000025432943018130BD2DE9F04105460E46AA
:101D100017469846002443463A4631462846FFF780
:101D2000E5FF2C894FF6F870044044F007044FF6A5
:101D30008F70044044F070042C81BDE8F081F0B550
:101D400004460D4616461F463B4632462946204667
:101D5000FFF7CCFF208940F480402081F0BD018551
:101D6000828270470A46002101884FF68F7319401E
:101D7000114301807047F0B50C4615461E46002100
:101D8000002200230189028B038C4FF6F87739403B
:101D900021434FF6FC473A4040F201173A434FF6D1
:101DA000DD773B404FF6FF7707EA06172F433B43AB
:101DB000018102830384F0BD0A460021018B4FF6A6
:101DC0008F7319401143018370470A460021018B2C
:101DD00048F6FF7319404FF6FF7303EA02231943D5
:101DE000018370470A460021818B4FF68F7319409B
:101DF0001143818370470A460021818B48F6FF73A7
:101E000019404FF6FF7303EA022319438183704799
:101E100021B1028842F08002028004E002884FF67D
:101E20007F731A400280704721B1828842F0040219
:101E3000828004E082884FF6FB731A4082807047EC
:101E400021B1828842F00802828004E082884FF645
:101E5000F7731A408280704721B1828842F00102F4
:101E6000828004E082884FF6FE731A4082807047B9
:101E70000A460021018B4FF6F77319401143018385
:101E800070470A460021018B4FF2FF7319404FF64D
:101E9000FF7303EA02231943018370470A460021B6
:101EA000818B4FF6F77319401143818370470A46BF
:101EB0000021818B4FF2FF7319404FF6FF7303EA45
:101EC00002231943818370470A460021018B4FF694
:101ED000FB7319401143018370470A460021018BAF
:101EE0004FF6FF3319404FF6FF7303EA02231943FD
:101EF000018370470A460021818B4FF6FB7319401E
:101F00001143818370470A460021818B4FF6FF33CE
:101F100019404FF6FF7303EA022319438183704788
:101F20000A460021018B4FF67F731940114301834C
:101F300070470A460021018BC1F30E014FF6FF7373
:101F400003EA02231943018370470A460021818B6B
:101F50004FF67F7319401143818370470A46002171
:101F6000818BC1F30E014FF6FF7303EA022319437D
:101F7000818370470A460021018C4FF6FD7319409A
:101F80001143018470470A460021018C4FF6F77314
:101F900019401143018470470A460021018C4FF615
:101FA000DF7319404FF6FF7303EA021319430184EC
:101FB00070470A460021018C4FF67F7319404FF697
:101FC000FF7303EA02131943018470470A46002194
:101FD000018C4FF6FF5319404FF6FF7303EA0223BB
:101FE0001943018470470A460021018C4FF2FF73A8
:101FF00019404FF6FF7303EA022319430184704727
:102000000A460021018C4DF6FF7319404FF6FF730D
:1020100003EA023319430184704730B500230124D9
:102020008C40A3B2048C9C430484048C02FA01F516
:10203000ADB22C43048430BD30B5002304248C4061
:10204000A3B2048C9C430484048C02FA01F5ADB263
:102050002C43048430BD70B503460020002418468C
:10206000183001258D40ACB21D8CA5431D8409B1EB
:10207000082909D100EB6100056825F070050560AD
:102080000568154305600EE00D1FC5F34E05284495
:10209000056825F4E045056005684FF6FF7606EA19
:1020A00002263543056070BD21B1028842F002026C
:1020B000028004E002884FF6FD731A4002807047E8
:1020C00021B1028842F00402028004E002884FF647
:1020D000FB731A400280704721B1828842F080026F
:1020E000828004E082884FF67F731A4082807047B6
:1020F00002884FF6F7731A40028002880A43028072
:10210000704782884FF68F731A40828082880A4314
:102110008280704702894FF6F8731A400281028963
:102120000A430281704702894FF67F731A40028189
:1021300002890A4302817047818470478185704714
:10214000818670470187704781877047A0F84010EB
:10215000704702884FF6FF431A40028002880A4304
:10216000028070470146888E70470146088F70478D
:102170000146888F70470146B1F84000704701461C
:10218000888C70470146088D704702460020138AEC
:102190000B4201D0012000E000207047CA430282B8
:1021A000704730B50246002000230024158A05EA56
:1021B0000103958905EA010413B10CB1012000E087
:1021C000002030BDCA4302827047000010B50446AB
:1021D000FB48844209D101218803FFF79BF80021C5
:1021E0004FF48040FFF796F832E0F648844209D178
:1021F00001214804FFF79BF800214FF40030FFF75E
:1022000096F825E0F048844209D101218804FFF7BF
:102210008EF800214FF48020FFF789F818E0EB4892
:10222000844209D10121C804FFF781F800214FF44D
:102230000020FFF77CF80BE0E548844208D101213B
:102240000805FFF774F800214FF48010FFF76FF8CE
:1022500010BD2DE9F04786B005460E460024A24683
:1022600000BFA1460027B08900B100BF2F462C8ACD
:102270004CF6FF700440F08804432C82AC894EF683
:10228000F3100440B088318908437189084304433E
:10229000AC81AC8A4FF6FF400440B0890443AC8265
:1022A00001A8FEF7B0FFC648874202D1DDF810A0B2
:1022B00001E0DDF80CA0A88910F4004F08D00AEB6B
:1022C000CA0000EB0A1031684900B0FBF1F807E0E2
:1022D0000AEBCA0000EB0A1031688900B0FBF1F884
:1022E0006420B8FBF0F004012009642101FB10898F
:1022F000A88910F4004F08D0322000EBC900B0FBD1
:10230000F1F000F00700044308E0322000EB091070
:102310006421B0FBF1F000F00F0004432C8106B003
:10232000BDE8F0874FF41651016000218180C18023
:1023300001810C21418100218181704710B5024645
:102340000020108A4FF2FF0318400B884C8823436B
:102350008C882343CC8823431843108210BD00216E
:10236000018041808180C180704721B1828942F41F
:102370000052828104E082894DF6FF731A40828107
:102380007047F0B503460024002600250020A1F583
:1023900010676A3F00D100BF1846C1F3421401F034
:1023A0001F06012707FA06F5012C01D10C3004E0C5
:1023B000022C01D1103000E014301AB107682F430D
:1023C000076002E00768AF430760F0BD1AB1838A77
:1023D0000B43838202E0838A8B4383827047028AA5
:1023E0004FF6F0731A400282028A0A430282704753
:1023F00082894FF2FF731A40828182890A43828167
:10240000704721B1828942F00202828104E0828910
:102410004FF6FD731A4082817047028A4FF6DF73D0
:102420001A400282028A0A430282704721B1028A5C
:1024300042F48042028204E0028A4BF6FF731A40A3
:1024400002827047C1F30802828070470146888883
:10245000C0F308007047818941F001018181704714
:10246000028BD2B20283028B42EA012202837047BE
:10247000028B02F47F420283028B0A43028370477D
:1024800021B1828A42F02002828204E0828A4FF6E1
:10249000DF731A408282704721B1828A42F01002B3
:1024A000828204E0828A4FF6EF731A40828270477C
:1024B00021B1828A42F00802828204E0828A4FF6C9
:1024C000F7731A408282704721B1828942F4004238
:1024D000828103E08289C2F30E028281704721B1BA
:1024E000828A42F40062828204E0828A4FF2FF73A1
:1024F0001A4082827047828A4FF6FB731A408282AA
:10250000828A0A438282704721B1828A42F00202A3
:10251000828204E0828A4FF6FD731A4082827047FD
:1025200002460020B1F5007F00D100BF13880B42A6
:1025300001D0012000E00020704701F40072B2F5E4
:10254000007F00D100BFCA430280704770B50246C9
:102550000024002300250020A1F510666A3E00D16A
:1025600000BFC1F3421501F01F03012606FA03F371
:10257000012D02D19689334006E0022D02D1168A40
:10258000334001E0968A33400C12012606FA04F427
:102590001688344013B10CB1012000E0002070BD5A
:1025A00010B500220023A1F510646A3C00D100BFE1
:1025B0000A1201249440A3B2DC43048010BD000041
:1025C000003801400044004000480040004C0040FA
:1025D0000050004000BFBF2080F31188BFF34F8F31
:1025E000BFF36F8F00BF00BFFEE7001F4FF0807387
:1025F0000360001F21F001030360001F2D4B0360E7
:10260000143802602038704700204FF0E021086144
:1026100088612948486107200861704710B527483C
:10262000006840F47F00254908600846006840F0D3
:102630007F400860FFF7E8FF002021490860FDF7B0
:1026400093FD002010BD704700BFBF2080F31188AC
:10265000BFF34F8FBFF36F8F00BF19480068401C56
:1026600017490860704716480068401E1449086002
:102670000846006820B9002080F3118800BF00BF21
:10268000704710B500BFBF2080F31188BFF34F8F94
:10269000BFF36F8F00BF00F045FA20B14FF08050BC
:1026A00006491C39086000BF002080F3118800BF74
:1026B00010BD0000D52500083F19010020ED00E005
:1026C00028000020434A22F00700434A10600022FD
:1026D000414B5A6043F6F872404B5A6000221A6030
:1026E000014643F6F8724A601A460A6070472DE9BF
:1026F000F04104464FF0000800F05DFB38480068E8
:1027000020B9FFF7DFFF01203549086044B10834E4
:1027100014F0070F04D004F00700C0F108000444CF
:10272000002C32D043F6F87084422ED22A4F38461D
:10273000056801E02F462D686868A04202D228682B
:102740000028F7D1254885421FD0386800F10808D5
:10275000286838606868001B102810D92E1968682E
:10276000001B70606C6071681B4800E000680268C4
:1027700052688A42FAD302683260066000BF194983
:1027800068680968081A1749086000F049FA404665
:10279000BDE8F08170B506463546B6B1083D2C4619
:1027A00000F009FB61680C4800E0006802685268AC
:1027B0008A42FAD30268226004600A4960680968A4
:1027C00008440849086000F02BFA70BD054800680D
:1027D00070477047B4000020340000203C00002007
:1027E000300000202C00002000F1080141604FF073
:1027F000FF31816000F10801C160016100210160C9
:10280000704700210161704742684A6093688B609D
:10281000936859609160086103685B1C03607047AE
:1028200010B502460B685C1C01D1106907E002F18B
:10283000080000E04068446824689C42FAD9446873
:102840004C604C68A160886041600A611468641C37
:10285000146010BD01460A69D1E901309860D1E9E0
:10286000010358605068884201D188685060002098
:1028700008611068401E10601068704710B5002491
:1028800007E004EB8401FE4A02EB8100FFF7ACFF96
:10289000641C082CF5D3FB48FFF7A6FFFA48FFF7A6
:1028A000A3FFFA48FFF7A0FFF948FFF79DFFF9489B
:1028B000FFF79AFFF348F8490860F348F7490860C2
:1028C00010BD10B50446FFF7BFFEF5480068401C78
:1028D000F3490860F348006840B9F24804600846CC
:1028E000006801280DD1FFF7C9FF0AE0EE48006833
:1028F00038B9EC480068C06AE16A884201D8E94802
:102900000460EA480068401CE849086094F82C100C
:1029100001208840E64909680843E5490860E16A02
:1029200001EB8101D64A02EB8100211DFFF76CFF0C
:10293000FFF799FEDC48006868B1DA480068C06AB1
:10294000E16A884207D24FF08050DA490860BFF34D
:102950004F8FBFF36F8F10BD2DE9FF5F80460E468E
:102960009146DDE90E7A109CA9F10100216B01EB83
:10297000800B2BF0070B86B1002507E0715D04F199
:1029800034004155705D00B902E06D1C102DF5D387
:1029900000BF00214320015502E0002084F83400EC
:1029A000082F00D30727E762201DFFF72AFF04F155
:1029B0001800FFF726FF2461C7F10800A0616462D8
:1029C0000020606484F8480041465846039AFFF7A7
:1029D0000CFE2060BAF1000F01D0CAF80040BDE83B
:1029E000FF9F2DE9FF4F85B0804689461746DDE9F8
:1029F00012ABB800FFF77BFE064656B14C20FFF73E
:102A000076FE04460CB1266304E03046FFF7C2FEB2
:102A100000E000247CB10020CDE900ABCDE902400C
:102A20003A4649464046089BFFF796FF2046FFF787
:102A300048FF012501E04FF0FF35284609B0BDE809
:102A4000F08F95490968096809B9012100E0002162
:102A500021B14FF0FF31984A116006E08E490968B4
:102A6000C968C868944A41681160704710B5044647
:102A7000206BFFF78FFE2046FFF78CFE10BD70B570
:102A80000546FFF7E1FD15B98648006800E02846D5
:102A90000446201DFFF7DEFE78B9E06A00EB8000F7
:102AA000774951F8200040B994F82C100120884053
:102AB0007F49096881437E480160A06A18B104F12A
:102AC0001800FFF7C7FE79480068401C7749086086
:102AD00074480068844209D1211D6D48FFF794FEB7
:102AE00076480068401C7549086009E06C48006839
:102AF000401E6B4908602046FFF7B8FFFFF7A1FFB3
:102B0000FFF7B1FD6848006858B166480068844224
:102B100007D14FF0805067490860BFF34F8FBFF374
:102B20006F8F70BD2DE9F0410027654800680028CF
:102B300068D164480068451C624805608DB95648F4
:102B4000D0F8008055480068534908605348C0F8E1
:102B500000805D480068401C5B490860FFF771FF1A
:102B600000BF5548006885423BD300BF4A48006813
:102B7000006808B9012000E0002020B14FF0FF30CC
:102B80004D4908602CE044480068C068C468666825
:102B9000B54202D24848066022E0201DFFF75AFEE7
:102BA000A06A18B104F11800FFF754FE94F82C1035
:102BB000012088403E49096808433D490860E16AB0
:102BC00001EB81012E4A02EB8100211DFFF71CFE63
:102BD0003449E06A0968C96A8842C7D30127C5E752
:102BE00000BF30480068C06A00EB8000244951F8FB
:102BF0002000012800D901273448006808B902F0F4
:102C000031FE06E031480068401C3049086002F09F
:102C100029FE2F48006800B101273846BDE8F08141
:102C200070B500240026FFF70FFD25480068401E00
:102C3000234908600846006800287AD118480068CF
:102C4000002876D04FE01148C068C46804F118002D
:102C5000FFF700FE201DFFF7FDFD94F82C1001206A
:102C6000884013490968084311490860E16A01EB8B
:102C70008101034A02EB8100211DFFF7C5FD29E018
:102C8000AC4000204C4100206041002074410020F5
:102C9000884100209C410020780000207C0000201A
:102CA0004C00002044000020580000206800002054
:102CB0005400002004ED00E06C00002048000020DB
:102CC0007400002050000020640000205C00002000
:102CD00060000020F849E06A0968C96A884202D3A6
:102CE0000120F6490860F648006808B9012000E0B4
:102CF00000200028A7D00CB1FFF7A3FEF14805681B
:102D000065B100BFFFF70EFF10B10120EB4908606D
:102D10006D1E002DF6D10020EA490860E7480068E2
:102D200038B101263007E8490860BFF34F8FBFF381
:102D30006F8FFFF798FC304670BD2DE9F0410546D6
:102D40000E46E2480768DC480068001DFFF782FD78
:102D500050B9D948006890F82C1001208840DC490F
:102D600009688143DA480160681C07D136B1D2484E
:102D70000168091DD748FFF747FD1AE07C19CE48C6
:102D800000684460BC4207D2CB480168091DD248A4
:102D90000068FFF745FD0CE0C7480168091DCF48F2
:102DA0000068FFF73DFDCE480068844201D2CC4860
:102DB0000460BDE8F081CB480068401CC949086048
:102DC00070472DE9F047044688464FF00009FFF7A9
:102DD000F2FFBE480668206800EB08052068B04294
:102DE00007D92068A8420BD9B54209D94FF001098B
:102DF00006E02068A84201D8B54201D94FF0010988
:102E00002560B9F1000F03D0A81B0021FFF795FF43
:102E1000FFF706FF07463FB94FF08050AA49086008
:102E2000BFF34F8FBFF36F8FBDE8F08770B50446D7
:102E3000002544B1FFF7BFFF00212046FFF77DFFCB
:102E4000FFF7EEFE05463DB94FF080509E49086001
:102E5000BFF34F8FBFF36F8F70BD70B50446FFF7A0
:102E6000F3FB14B99448006800E020460646F56A72
:102E7000FFF7F9FB284670BD70B5024600BFBF25BD
:102E8000EFF3118485F31188BFF34F8FBFF36F8F7A
:102E900000BF214612B9884C246800E0144623463E
:102EA000D86A00BF81F3118800BF70BD2DE9F047DB
:102EB00080460D464FF00009082D00D30725FFF787
:102EC000C3FBB8F1000F02D17B48006800E0404628
:102ED0000446E66AAE4251D0B5420BD97648006846
:102EE00084420DD074480068C06AA84208D84FF0E8
:102EF000010905E070480068844201D14FF00109E2
:102F0000E76AE562A06910F0004F02D1C5F1080040
:102F1000A06107EB8701744A02EB81016069884276
:102F200001D1012000E00020E0B1201DFFF792FC5C
:102F300030B90120B840664909688143644801609E
:102F400094F82C10012088406149096808436049C1
:102F50000860E16A01EB8101634A02EB8100211DF7
:102F6000FFF752FCB9F1000F07D04FF080505649DF
:102F70000860BFF34F8FBFF36F8F00BFFFF773FB86
:102F8000BDE8F0875748006818B101204B49086038
:102F90001DE00020494908604D480068B0FA80F003
:102FA000C0F11F0101EB81024F4B03EB820042682D
:102FB0005268426000F108024368934202D14268BD
:102FC000526842604268D2683B4B1A6000BF70474B
:102FD00070B50546FFF738FB15B93748006800E0C3
:102FE00028460446201DFFF735FC78B9E06A00EB5F
:102FF00080003D4951F8200040B994F82C10012080
:10300000884033490968814331480160A06A18B19A
:1030100004F11800FFF71EFC211D2E48FFF7F4FBFA
:1030200094F84800012802D1002084F84800FFF7F6
:103030001AFB2E48006828B1FFF706FBFFF701FDD9
:10304000FFF711FB1C480068844217D1274800682D
:1030500040B14FF080501C490860BFF34F8FBFF361
:103060006F8F0BE01B48006821490968884203D133
:1030700000201149086001E0FFF784FF70BD10B522
:10308000014600200A46134C5369A34201D1012393
:1030900000E0002373B10A4C936AA34201D10123DB
:1030A00000E0002333B9936A0BB9012300E0002349
:1030B00003B1012010BD000044000020600000208A
:1030C000744100205C00002004ED00E0500000206E
:1030D000540000209C4100207C000020780000204B
:1030E0006C00002074000020AC400020580000203C
:1030F0004C00002070B505462C46FE48006884420E
:103100002BD054B3FFF7A0FA2046FFF7B8FF10B357
:10311000201DFFF79FFB94F82C1001208840F649F2
:1031200009680843F4490860E16A01EB8101F34A48
:1031300002EB8100211DFFF767FBEE49E06A096899
:10314000C96A884207D34FF08050ED490860BFF349
:103150004F8FBFF36F8FFFF786FA70BD2DE9F041F7
:1031600006460027344600BFBF21EFF3118081F3EC
:103170001188BFF34F8FBFF36F8F00BF0546204606
:10318000FFF77DFF20B3DF480068E0B9D949E06A66
:103190000968C96A884200D30127201DFFF75AFB3E
:1031A00094F82C1001208840D34909680843D2497B
:1031B0000860E16A01EB8101D04A02EB8100211D28
:1031C000FFF722FB04E004F11801CF48FFF71CFBD6
:1031D00000BF85F3118800BF3846BDE8F08110B507
:1031E00016E0FFF731FAC948C068C468201DFFF730
:1031F00031FBC7480068401EC5490860C5480068E3
:10320000401EC4490860FFF72EFA2046FFF72EFC47
:10321000C04800680028E4D110BD00BFFFF7DFFF01
:10322000B64800680128F9D94FF08050B4490860C9
:10323000BFF34F8FBFF36F8FF0E71CB5B648002187
:103240000B468022CDE90010B4A1B648FFF7C9FBB8
:103250000446012C14D100BFBF2080F31188BFF3B6
:103260004F8FBFF36F8F00BF4FF0FF30AE49086044
:103270000120AE4908600020AD490860FFF7CEF993
:103280001CBD10B500BFBF2080F31188BFF34F8F66
:10329000BFF36F8F00BF0020A4490860FFF7D3F988
:1032A00010BDA349086870470021A14A1068704703
:1032B000974800687047014611B98E48006800E0E1
:1032C0000846024602F13400704770B505460C46C8
:1032D0008848016818312846FFF7A2FA01212046E4
:1032E000FFF72BFD70BD70B506460C46154644F041
:1032F00000408049096888617E480168183130467D
:10330000FFF782FA01212846FFF717FD70BD70B55F
:103310000646F068C46804F11800FFF79BFA794884
:103320000068A8B9201DFFF795FA94F82C10012029
:1033300088407149096808436F490860E16A01EBF8
:1033400081016E4A02EB8100211DFFF75DFA04E066
:1033500004F118016C48FFF757FA6649E06A0968FA
:10336000C96A884204D9012501207249086000E039
:103370000025284670BD70B505460E4646F0004053
:103380002860EC682846FFF765FA201DFFF762FA0F
:1033900094F82C1001208840574909680843564981
:1033A0000860E16A01EB8101544A02EB8100211DB2
:1033B000FFF72AFA4F49E06A0968C96A884202D9C8
:1033C00001205C49086070BD10B50446FFF73CF968
:1033D000594800682060564800686060FFF743F96C
:1033E00010BD55490968016051490968416070473D
:1033F00070B506460C46FFF727F94D48026870681D
:10340000131A2068401C01D1002517E04A49306892
:103410000968884204D07068904201D801250DE007
:103420002068984207D92068C01A20603046FFF70C
:10343000D8FF002502E0002020600125FFF713F9E6
:10344000284670BD01203B4908607047294909683A
:10345000886928490968C96AC1F10801254A1268C2
:103460009161704770B506460D46FFF7EDF82148AB
:103470000068406C88B901201E49096881F848003D
:103480005DB101212846FFF758FC4FF080501C49E0
:103490000860BFF34F8FBFF36F8FFFF7E4F8FFF7BC
:1034A000D3F814480068446C4CB126B1002011498F
:1034B0000968486403E0601E0E49096848640020FA
:1034C0000C49096881F84800FFF7CDF8204670BD27
:1034D0002DE9F0410746884614461D46FFF7B4F82B
:1034E0000448006890F8480002283ED00149096865
:1034F00024E000004400002054000020AC400020E4
:1035000004ED00E074000020744100208841002098
:103510004C000020480000207000002049444C4529
:10352000000000001B3200086C0000205800002042
:1035300050000020600000206400002001F14400E1
:10354000496CB94301600120B249096881F848001B
:103550005DB101212846FFF7F0FB4FF08050AE49E6
:103560000860BFF34F8FBFF36F8FFFF77CF8FFF753
:103570006BF81CB1A7480068406C2060A548006843
:1035800090F84800022801D0002608E0A149096807
:1035900001F14400496C21EA080101600126002084
:1035A0009C49096881F84800FFF75DF83046BDE89E
:1035B000F0812DE9F04781460D4616461F464FF033
:1035C000010A4C46FFF740F80FB1606C386094F880
:1035D0004880022084F84800052E17D2DFE806F064
:1035E0001503070B0D00606C284360640FE0606CEE
:1035F000401C60640BE0656409E0B8F1020F01D083
:10360000656401E04FF0000A01E000E000BF00BF88
:10361000B8F1010F22D1201DFFF71CF994F82C10EE
:10362000012088407D49096808437C490860E16AB7
:1036300001EB81017A4A02EB8100211DFFF7E4F8DA
:103640007449E06A0968C96A884207D94FF0805016
:1036500071490860BFF34F8FBFF36F8FFFF703F817
:103660005046BDE8F0872DE9F84F83460D461646D3
:103670001F46DDF828A0012000905C4600BFBF2156
:10368000EFF3118081F31188BFF34F8FBFF36F8F7A
:1036900000BF81460FB1606C386094F8488002200A
:1036A00084F84800052E17D2DFE806F01503070B53
:1036B0000D00606C284360640FE0606C401C606427
:1036C0000BE0656409E0B8F1020F01D0656401E028
:1036D0000020009001E000E000BF00BFB8F1010F42
:1036E0002CD150480068A8B9201DFFF7B3F894F812
:1036F0002C1001208840494909680843474908605F
:10370000E16A01EB8101464A02EB8100211DFFF7CE
:103710007BF804E004F118014348FFF775F83D49D0
:10372000E06A0968C96A884208D9BAF1000F02D074
:103730000120CAF8000001203C49086000BF89F35D
:10374000118800BF0098BDE8F88F2DE9F0410546CB
:103750000E462C4600BFBF21EFF3118081F3118884
:10376000BFF34F8FBFF36F8F00BF074694F84880B9
:10377000022084F84800606C401C6064B8F1010FBE
:1037800029D128480068A8B9201DFFF763F894F8EC
:103790002C10012088402149096808431F4908600E
:1037A000E16A01EB81011E4A02EB8100211DFFF756
:1037B0002BF804E004F118011B48FFF725F8154920
:1037C000E06A0968C96A884205D90EB101203060F3
:1037D00001201649086000BF87F3118800BFBDE8CB
:1037E000F08170B5054615B90A48006800E0284622
:1037F0000646FEF729FF96F84800022804D100206B
:1038000086F84800012400E00024FEF72CFF204643
:1038100070BD00004400002004ED00E054000020D2
:10382000AC400020740000207441002060000020A3
:103830000146FE4A12688A4203D3FC4A1268501AB3
:1038400004E0FB4A521AF94B1B68D0187047F7483E
:103850000068704770B505460E46F448A0F8185148
:10386000002405E0315DF14818300155601C84B238
:10387000AC42F7DB002240F22551EE48FEF781FD15
:10388000012240F22661EB48FEF77BFD70BD70B56A
:1038900004460D461646AA21E44880F89810DD211A
:1038A00080F8991080F89A4080F89B5080F89C60CE
:1038B00090F8981090F899004840DC4991F89A10D7
:1038C0004840DA4991F89B104840D84991F89C103B
:1038D0004140D64880F89D1000F198010620FFF77E
:1038E000B9FF70BD0121D14880F81C11002180F87A
:1038F0001E11A0F82011704700B50246CB48B0F861
:10390000240108B9FFF7EEFFC84890F81C0100F049
:103910000F0009287ED2DFE800F0F4051B314B656B
:10392000819DC300AA2A0ED10221C04880F81C1133
:1039300090F81E015040BD4981F81E010A21BB4884
:10394000A0F8241103E00021B848A0F82411D9E020
:10395000DD2A0ED10321B54880F81C1190F81E0114
:103960005040B24981F81E010A21B048A0F8241144
:1039700003E00021AD48A0F82411C3E00421AB48C6
:1039800080F81C110A21A0F82411B0F82011B0F819
:103990002001401C83B2A548A0F820315830425481
:1039A000583890F81E015040A04981F81E01A9E046
:1039B00005219E4880F81C110A21A0F82411B0F8B6
:1039C0002011B0F82001401C83B29848A0F82031A3
:1039D00058304254583890F81E015040934981F8AD
:1039E0001E018FE00621914880F81C110A21A0F8E1
:1039F0002411B0F82011B0F82001401C83B28B488C
:103A0000A0F8203158304254583890F81E015040E8
:103A1000864900E075E081F81E0173E007218348C4
:103A200080F81C110A21A0F8241180F81D21B0F89B
:103A30002011B0F82001401C83B27C48A0F820314E
:103A400058304254583890F81E015040774981F858
:103A50001E0157E0754890F81D01401EC1B2734821
:103A600080F81D1190F81D0118B908216F4880F8E1
:103A70001C110A216D48A0F82411B0F82011B0F8EB
:103A80002001401C83B26948A0F8203158304254CC
:103A9000583890F81E015040644981F81E0131E009
:103AA000624890F81E01904226D100215F48A0F89C
:103AB000221111E05D48B0F822115830415C5838AD
:103AC000B0F82231D830C154D838B0F82201401CA7
:103AD00081B25648A0F822115448B0F8221190F84B
:103AE0005B00001D8142E5DB0121504880F8261172
:103AF0000021A0F8241103E000214C48A0F8241173
:103B000000E000BF00BF00BD70B505460E46474847
:103B1000A0F82852002404E0315D47480155601C9C
:103B200084B2AC42F8DB012240F226614348FEF742
:103B300028FC70BD70B504460D46164655213B481D
:103B400080F8A811AA2180F8A91180F8AA4180F86C
:103B5000AB5180F8AC6190F8AA1190F8AB014840E5
:103B6000324991F8AC114140304880F8AD1100F570
:103B7000D4710620FFF7C8FF70BD01212B4880F8E3
:103B80002C12002180F82E12A0F83012704700B5D8
:103B900002462648B0F8340208B9FFF7EEFF234882
:103BA00090F82C0200F00F0007287DD2DFE800F02B
:103BB000B004132248638000552A07D102211B4814
:103BC00080F82C120A21A0F8341203E000211748D3
:103BD000A0F834129DE0AA2A07D10321134880F8E7
:103BE0002C120A21A0F8341203E000210F48A0F89B
:103BF00034128EE004210D4880F82C120A21A0F81E
:103C00003412B0F83012B0F83002401C83B20748CA
:103C1000A0F8303200F5B4704254044890F82E02F7
:103C20005040024981F82E0273E00000B0410020AC
:103C3000005C260500380140D842002000440040C6
:103C40000521FA4880F82C120A21A0F83412B0F8A5
:103C50003012B0F83002401C83B2F448A0F8303281
:103C600000F5B4704254F14890F82E025040EF49EC
:103C700081F82E024DE00621EC4880F82C120A2132
:103C8000A0F83412B0F83012B0F83002401C83B201
:103C9000E648A0F8303200F5B4704254E34890F89A
:103CA0002E025040E14900E032E081F82E0230E07F
:103CB000DE4890F82E02904225D10021DB48A0F882
:103CC000321213E0D948B0F8321200F5B470415CFA
:103CD000D648B0F8323200F5F470C154D348B0F889
:103CE0003202401C81B2D148A0F83212CF48B0F85D
:103CF00032020328E6DB0121CC4880F8361200218D
:103D0000A0F8341203E00021C848A0F8341200E003
:103D100000BF00BF00BD00B5FFF799FDC349486073
:103D200000BD182871D2DFE800F00C16202A343EBE
:103D300048525C66717B858F99A3ADB7C1CBD5DF47
:103D4000E9F4012903D10122B94B1A6002E00022F3
:103D5000B74B1A60E8E0012903D10122B54B1A6084
:103D600002E00022B34B1A60DEE0012903D10122F8
:103D7000B14B1A6002E00022AF4B1A60D4E0012977
:103D800003D10122AD4B1A6002E00022AB4B1A6056
:103D9000CAE0012903D10122A94B1A6002E00022E6
:103DA000A74B1A60C0E0012903D10122A54B1A607C
:103DB00002E00022A34B1A60B6E0012903D10122E0
:103DC000A14B1A6002E000229F4B1A60ACE001296F
:103DD00003D101229D4B1A6002E000229B4B1A6026
:103DE000A2E0012903D10122994B1A6002E00022CE
:103DF000974B1A6098E0012903D10122954B1A6074
:103E000002E00022934B1A608EE08CE0012903D17E
:103E10000122914B1A6002E000228F4B1A6083E06E
:103E2000012903D101228D4B1A6002E000228B4B45
:103E30001A6079E0012903D10122894B1A6002E05E
:103E40000022874B1A606FE0012903D10122854BC4
:103E50001A6002E00022834B1A6065E0012903D159
:103E60000122814B1A6002E000227F4B1A605BE066
:103E7000012903D101227D4B1A6002E000227B4B15
:103E80001A6051E0012903D10122794B1A6002E046
:103E90000022774B1A6047E0012903D10122754BBC
:103EA0001A6002E00022734B1A603DE0012903D141
:103EB0000122714B1A6002E000226F4B1A6033E05E
:103EC000012903D101226D4B1A6002E000226B4BE5
:103ED0001A6029E0012903D10122694B1A6002E02E
:103EE0000022674B1A601FE0012903D10122654BB4
:103EF0001A6002E00022634B1A6015E0012904D128
:103F00000122614B1A6003E003E000225E4B1A605D
:103F10000AE0012903D101225C4B1A6002E0002271
:103F20005A4B1A6000E000BF00BF70472DE9F04710
:103F30008046894616461C46002500270CE0494667
:103F40004046FCF788FFB04201D1681CC5B20A2088
:103F5000FEF76CFF781CC7B2A742F0DB95FBF4F0CC
:103F6000C5B2012D02D10120BDE8F0870020FBE79A
:103F70002DE9F04781468A4614461D460027B8467B
:103F8000FEF762FB01214248FDF742FE51464846DA
:103F9000FCF761FF064605E0781C0746B0F5801F78
:103FA00000D305E051464846FCF755FFB042F3D038
:103FB00000BF00201D49086105E0781C0746B0F5E8
:103FC000801F00D305E051464846FCF744FFB0424D
:103FD000F3D100BF002705E0781C0746B0F5801F2D
:103FE00000D305E051464846FCF735FFB042F3D018
:103FF00000BF0E48D0F8108000212548FDF708FECC
:10400000FEF731FB601B404505D86019404502D3DF
:104010000120BDE8F0870020FBE72DE9F0410746CD
:104020000D4616460024A04640E00000B0410020A6
:1040300080812142848121428C81214290812142D0
:1040400094812142988121429C812142A081214278
:10405000A4812142A8812142AC812142B081214228
:10406000B4812142B8812142900121429401214230
:104070009801214294012242980122429C0122424D
:10408000A0012242A4012242A8012242AC01224204
:10409000000400403888C0F30B00204484B20A209A
:1040A000FEF7C4FE08F1010000F0FF08B8F1050FAB
:1040B000F0DB052094FBF0F084B2A81BA04205DAE7
:1040C000A819A04202DD0120BDE8F0810020FBE735
:1040D0002DE9F047804689461546002600271DB980
:1040E0000120FA4908600DE0012D03D10120F849B3
:1040F000086007E0022D05D10120F6490860F64965
:10410000C1F8940140F2CF214FF0C80001F004FA49
:104110001421F248FEF716F8FEF796FA0121F0484E
:10412000FDF776FD49464046FCF795FE044605E05E
:10413000701C0646B0F5801F00D305E04946404696
:10414000FCF789FEA042F3D000BF0020E5490861DA
:1041500005E0701C0646B0F5801F00D305E0494617
:104160004046FCF778FEA042F3D100BF002605E0F0
:10417000701C0646B0F5801F00D305E04946404656
:10418000FCF769FEA042F3D000BFD64807690021C2
:10419000D348FDF73DFDFEF766FA0020CB490860E5
:1041A000D149C1F884014FF047014FF01A0001F0E6
:1041B000B3F90021C948FDF7C5FF082F04D30C2F20
:1041C00002D80120BDE8F0870020FBE70A2802DAC8
:1041D000C64A115415E00A2808D119B90022C44B67
:1041E0001A600EE00122C24B1A600AE0BD4A82F852
:1041F000981282F8991282F89A1282F89B1282F829
:104200009C127047052873D2DFE800F0031C354E7E
:10421000670019B90022B74B1A6012E0012903D1D7
:104220000122B44B1A600CE0AE4A92F89D2212F0C3
:10423000010F03D10022AF4B1A6002E00122AD4B07
:104240001A6065E019B90022AB4B1A6012E001292F
:1042500003D10122A84B1A600CE0A24A92F89D22D9
:1042600012F0010F03D10022A34B1A6002E00122D9
:10427000A14B1A604CE019B90022A04B1A6012E061
:10428000012903D101229D4B1A600CE0954A92F856
:104290009D2212F0010F03D10022984B1A6002E018
:1042A0000122964B1A6033E019B90022944B1A6030
:1042B00012E0012903D10122914B1A600CE0894AD6
:1042C00092F89D2212F0010F03D100228C4B1A604C
:1042D00002E001228A4B1A601AE019B90022894BC8
:1042E0001A6013E0012904D10122864B1A600DE007
:1042F0000DE07C4A92F89D2212F0010F03D10022BA
:10430000804B1A6002E001227E4B1A6000E000BF81
:1043100000BF704703468B4203DB934201DC012060
:1043200070470020FCE710B5044604EBC4016F4859
:104330005A3810F81100C0F3400000287ED004EB7A
:10434000C4016A485A3800EB41008078C0F164002B
:10435000C1B204EBC40265485A3800EB4200C17098
:1043600004EBC40161485A3810F81100C0F3800012
:10437000E0BB04EBC4025D495A3901EB4201C87845
:104380001C221121FFF7C6FF012813D104EBC40141
:1043900056485A3810F8110020F00401091D04EBAA
:1043A000C40252485A3800F81210FFF750FA4D492B
:1043B00048612AE104EBC4014C485A3810F8110056
:1043C00020F0040104EBC40248485A3800F81210E7
:1043D000002104EBC40200EB4200017104EBC402B3
:1043E00042485A3800EB420041710EE1FFE73D4977
:1043F0004869FFF71DFA042867D204EBC4023B4961
:104400005A3901EB4201C87805220221FFF782FFE9
:10441000012826D104EBC40134485A3800EB41008E
:104420000079401CC1B204EBC40230485A3800EB9A
:1044300042000171FFF70BFA2A4900E0C1E0486130
:1044400004EBC40129485A3800EB4100407940068A
:10445000010E04EBC40225485A3800EB42004171BA
:104460006AE004EBC40221495A3901EB4201C878E1
:104470000B220621FFF74EFF01285DD104EBC4019A
:104480001A485A3800EB41000079401CC1B204EBD5
:10449000C40216485A3800EB42000171FFF7D7F901
:1044A0001049486104EBC40110485A3800EB410040
:1044B0004079012101EB4000C1B204EBC4020B487A
:1044C0005A3800EB4200417136E01DE0AC812342D6
:1044D000848121429081234200802342002C0140AC
:1044E00000040040B04100200080214248440020E8
:1044F0009001214294012242980122429C012242D1
:10450000A0012242A401224204EBC401944810F805
:10451000110020F0040104EBC402914800F81210CD
:10452000002104EBC40200EB4200017104EBC40261
:104530008B4800EB4200417104EBC401884800EB5A
:1045400041000079082860DB04EBC401844810F8BE
:10455000110020F0020104EBC402814800F812109F
:1045600004EBC40100EB4100417904EBC4027C4838
:1045700000EB4200817104EBC401794800EB41007B
:104580008079A3280FD004EBC401754800EB4100EB
:104590008079AC2807D004EBC401714800EB4100DE
:1045A0008079C52831D104EBC4016D4810F81100A1
:1045B00020F00801083104EBC402694800F8121029
:1045C00023E004EBC401664810F8110020F002015A
:1045D000891C04EBC402624800F8121004EBC40109
:1045E00010F8110020F0040104EBC4025C4800F84C
:1045F0001210002104EBC40200EB4200017104EB35
:10460000C402574800EB42004171642104EBC4022C
:10461000534800EB4200817010BD00EBC0025049CE
:1046200011F8121021F0080200EBC0034C4901F808
:10463000132000EBC00201EB42018979A3290ED1BE
:10464000012200EBC003464901EB4301CA714FF45C
:10465000FA7200EBC003424901EB43010A8100EB0F
:10466000C0023F4901EB42018979AC290ED10122F8
:1046700000EBC0033A4901EB43018A724FF4FA722E
:1046800000EBC003364901EB43018A8100EBC00215
:10469000334901EB42018979C5290ED1012200EB92
:1046A000C0032F4901EB43018A734FF4FA7200EB08
:1046B000C0032B4901EB43010A82704701460020E9
:1046C00001EBC103264A02EB4302D27912F0010F3B
:1046D00001D040F0010001EBC103214A02EB43028B
:1046E000927A12F0010F01D040F0020001EBC103F9
:1046F0001B4A02EB4302927B12F0010F01D040F003
:104700000400704710B50446012C07D1012115485B
:1047100080F8A2121448FDF77BFA06E00021114848
:1047200080F8A2121048FDF773FA10BD10B51221DF
:104730000B4801F03FFB12210948123001F03AFB0F
:1047400012210748243001F035FB1221044836308D
:1047500001F030FB12210248483001F02BFB10BD64
:10476000EE430020B04100200004004070B5064632
:104770000D4600206C4908604FF0020001F00CFB70
:10478000002419E046FA04F000F0010067490860CF
:104790004FF0020001F000FB00206549C1F88C01D8
:1047A000022001F0F9FA0120624908604FF002008E
:1047B00001F0F2FA601CC4B2082CE3DB012D06D133
:1047C0000120594908604FF0020001F0E5FA70BD80
:1047D00070B50546002419E045FA04F000F0010028
:1047E000524908604FF0020001F0D6FA002050490B
:1047F000C1F88C01022001F0CFFA01204D49086078
:104800004FF0020001F0C8FA601CC4B2082CE3DBD0
:104810000120454908604FF0020001F0BDFA70BD6B
:104820002DE9F04107460C4615461E4601210020A1
:10483000FFF79CFF01214420FFF798FF0021C020D3
:10484000FFF794FF3046FFF7C3FF0021C220FFF7B8
:104850008DFF2846FFF7BCFF0021C420FFF786FF2D
:104860002046FFF7B5FF0021C620FFF77FFF38463F
:10487000FFF7AEFF01218C20FFF778FFBDE8F08144
:1048800010B501210020FFF771FF01214420FFF73F
:104890006DFF0021C020FFF769FF0020FFF798FFA0
:1048A0000021C220FFF762FF0020FFF791FF0021E7
:1048B000C420FFF75BFF0020FFF78AFF0021C6201E
:1048C000FFF754FF0020FFF783FF01218C20FFF743
:1048D0004DFF10BD10B501210020FFF747FF01215A
:1048E0004420FFF743FF0021C020FFF73FFF0720D0
:1048F000FFF76EFF0021C220FFF738FF0720FFF708
:1049000067FF0021C420FFF731FF3720FFF760FF6A
:104910000021C620FFF72AFF3E20FFF759FF0121A3
:104920008C20FFF723FF10BD880122429001224214
:10493000000022428C01224210B520212748FCF7BA
:104940008AFAF0B9264890F83C0210F0010F2BD1FA
:10495000234890F83D02401CC1B2214880F83D1226
:1049600090F83D0203281FDB03211D4880F83D120B
:1049700090F83C0220F00200801C194981F83C02AA
:1049800012E0174890F83C02C0F3400040B11448D0
:1049900090F83C0220F00100401C114981F83C02D3
:1049A00000210F4880F83D1210BD00BFFEF74FFFF9
:1049B0000546FCF714FBFFF7BFFF2846FEF738FF5C
:1049C000322806D22846FEF733FFC0F13200C4B2C7
:1049D00000E000242046FEF729FAE7E7000801403E
:1049E000B041002070B50446072C35D2DFE804F052
:1049F00034040C141C242C00EE4D6B782A78297E8C
:104A0000287BFFF70DFF28E0EA4DAB782A78297E56
:104A1000287BFFF705FF20E0E64DEB782A78297E1A
:104A2000287BFFF7FDFE18E0E24D2B792A78297EDE
:104A3000287BFFF7F5FE10E0DE4D6B792A78297EA2
:104A4000287BFFF7EDFE08E0DA4DAB792A78297E66
:104A5000287BFFF7E5FE00E000BF00BF70BD00BF90
:104A6000FCF7BDFAD44890F83802C0F3400050BBC0
:104A7000D14890F83C0210F0010F24D0CE4890F8B5
:104A80003C0220F00101CC4880F83C1290F83C0236
:104A900020F00201C84880F83C12012180F8A012E1
:104AA0000D20FFF73EF96420FEF7C0F9C24890F8E8
:104AB000380220F00200801CBF4981F83802012131
:104AC000BD4880F83912BC4890F83802C0F3400065
:104AD0000028C5D0B84890F8391290F83A028142BF
:104AE000BED0B54890F8391280F83A1290F83902E1
:104AF00009286ED2DFE800F0D5051A30495B6E93C5
:104B0000B400F82240F60C01AC48FFF786FA012801
:104B100004D10221A84880F8391206E00721A648EE
:104B200080F83912012180F83B12BBE0F82240F6F0
:104B30008A61A248801CFFF770FA012804D1032182
:104B40009D4880F8391206E007219B4880F8391209
:104B5000022180F83B12A5E00120FFF7D3FD4FF4BE
:104B6000FA70FEF763F90220FFF7A8FD012804D1CF
:104B70000421914880F8391206E007218E4880F818
:104B80003912032180F83B128CE00320FFF796FDD9
:104B9000022804D10521884880F8391206E007214F
:104BA000854880F83912042180F83B127AE0012010
:104BB000FFF784FD042804D106217F4880F83912CC
:104BC00006E007217C4880F83912052180F83B1265
:104BD00068E066E001210B20FFF7A3F84FF448706E
:104BE000FEF724F90220FFF769FD60B90320FFF703
:104BF00065FD40B90120FFF761FD20B908216E482D
:104C000080F8391206E007216B4880F83912062136
:104C100080F83B1200210B20FFF783F842E00021CF
:104C20000D20FFF77EF80020FFF76CFDFFF77EFDFB
:104C3000614890F8380220F002005F4981F838029C
:104C400000215D4880F8A012014691F83B02FFF771
:104C5000C9FE0021584880F8391280F83A1221E044
:104C600000210D20FFF75DF80020FFF74BFDFFF757
:104C70005DFD514890F8380220F002004E4981F85D
:104C8000380200214C4880F8391280F83A1280F836
:104C9000A012484CA37BA27BE17A607BFFF7C0FDAA
:104CA00000E000BFDCE62DE9F04105460C46164663
:104CB0000027B84600BF781CC0B20746032801DDB4
:104CC000BDE8F081324621462846FEF733FF4FF417
:104CD0007A70FEF7ABF8384890F8360210F0010F02
:104CE00014D0354890F8E80101280FD1324890F8E7
:104CF000E901A0420AD1304890F8EA01012805D123
:104D000000212D4880F836124FF00108B8F1000F4D
:104D1000D1D000BFD4E72DE9F04707468846914639
:104D20001C46DDE908A500260021234880F8DC1098
:104D3000BAF1000F22D100BF701CC0B20646A842D3
:104D400002DD0020BDE8F0874A4641463846FEF7BE
:104D50009EFD2046FEF76AF8174890F8260110F0ED
:104D6000010FE9D0144890F8260110F0010F1BD074
:104D7000114890F8DC000028DED015E000BF701C60
:104D8000C0B20646A84201DD0020DBE74A464146A4
:104D90003846FEF77CFD2046FEF748F8064890F8B6
:104DA000260110F0010FEAD00021034880F82611F7
:104DB0000120C7E781000020B041002054440020BA
:104DC00010B54FF44070FBF709FB10BD10B5012082
:104DD000FCF7A1F92120FCF75CF904460CB900208E
:104DE00010BD4FF4E0110020FCF798F90120FCF70A
:104DF000A1F900BF3920FCF74CF90028FAD039207E
:104E0000FCF747F904460220FCF797F90020FCF76D
:104E1000A2F90020FCF7A8F90020FCF7AEF9012068
:104E2000DEE710B5FCF7F2F84FF48030FCF70EF92E
:104E3000FCF74BF9FE49087008460078D8B94FF4E2
:104E4000E0114FF48030FCF769F90120FCF772F9AA
:104E500000BF3920FCF71DF90028FAD00220FCF72A
:104E60006CF90020FCF777F94FF48060FCF77CF9CF
:104E70000020FCF782F910BD08B501210846FCF7B7
:104E800022FA0121EB48FCF738FA012144F63D00F3
:104E9000FCF726FA0121E848FCF71BF84FF6FF70F3
:104EA000ADF8000004208DF8030003208DF8020007
:104EB0006946E248FBF73EFF6946E148FBF73AFFE7
:104EC0006946E048FBF736FF6946DF48FBF732FFEB
:104ED00008BD10B545F25550FCF778F80620FCF7F0
:104EE00078F840F6FF70FCF777F8FCF77DF810BD16
:104EF00030B5D64800684FF47A72B0FBF2F1B1F1E8
:104F0000807F01D301201BE021F07F40401E4FF045
:104F1000E022506150170F22002806DA1301CC4C12
:104F200000F00F052D1F635502E01301C94C2354F7
:104F300000BF00204FF0E0229061072010610020A8
:104F400008B100BFFEE730BD1FB56320ADF8080013
:104F500040F2CF20ADF804000020ADF80A00ADF813
:104F6000060001A94FF08040FCF7F6FA1C208DF8EE
:104F7000000002208DF8010000208DF802000120C1
:104F80008DF803006846FBF72EFA012211469007C0
:104F9000FCF759FE01218807FCF73AFE1FBD1FB53B
:104FA0001320ADF8080040F2CF20ADF80400002037
:104FB000ADF80A00ADF8060001A9A748FCF7CCFA45
:104FC0001D208DF8000007208DF8010000208DF8CD
:104FD000020001208DF803006846FBF704FA012265
:104FE00011469D48FCF72FFE00219B48FCF710FE60
:104FF0001FBD1FB540F6B730ADF8080041F61F40A1
:10500000ADF804000020ADF80A00ADF8060001A9D3
:105010009248FCF7A1FA1E208DF8000008208DF8B8
:10502000010000208DF8020001208DF80300684681
:10503000FBF7D9F9012211468848FCF704FE01214B
:105040008648FCF7E5FD1FBD1FB51920ADF8080027
:1050500040F2CF20ADF804000020ADF80A00ADF812
:10506000060001A97D48FCF777FA32208DF8000090
:1050700003208DF8010000208DF8020001208DF83A
:1050800003006846FBF7AFF9012211467448FCF7AC
:10509000DAFD01217248FCF7BBFD1FBD1FB547209B
:1050A000ADF80C0010208DF80F0003208DF80E00D5
:1050B00003A96248FBF73EFE00206A4908606A497E
:1050C000C1F88401694908606749C1F8980149F647
:1050D0003000ADF80C004FF048008DF80F004FF095
:1050E00003008DF80E0003A95448FBF723FE0B21A3
:1050F0000020FBF733FF4FF40060019000208DF893
:1051000008000C208DF8090001208DF80A0001A884
:10511000FBF730FD0C210020FBF720FF4FF48050FF
:10512000019000208DF808000C208DF80900012066
:105130008DF80A0001A8FBF71DFD0F210020FBF7E9
:105140000DFF4FF40040019000208DF808000C2066
:105150008DF8090001208DF80A0001A8FBF70AFD6F
:1051600028208DF8000005208DF8010000208DF822
:10517000020001208DF803006846FBF734F947F67A
:10518000FB70ADF80C0010208DF80F0003208DF897
:105190000E0003A92A48FBF7CDFD00203449086022
:1051A00001F1040108603349086001F1040108605D
:1051B00001F10401086001F10401086001F104013A
:1051C000086001F10401086001F10401086001F1C7
:1051D0000401086001F10401086001F104010860A4
:1051E00001F1040108602449C1F8B8014FF40040FE
:1051F000ADF80C004FF048008DF80F004FF00300A1
:105200008DF80E0003A90E48FBF794FD40F6FC70E4
:10521000ADF80C0010208DF80F0003208DF80E0063
:1052200003A90848FBF786FD01201449086027E020
:105230009E00002017081E000002300000080140F8
:10524000000C01400010014000140140000000204B
:1052500018ED00E000E400E0000400400008004019
:10526000000C0040800121420000214288012142BF
:10527000808121428C81214200802142880122428A
:1052800001F10401086001F1040108604FF0000021
:1052900001F10401086001F10401086001F1040159
:1052A000086001F10401086001F10401086001F1E6
:1052B00004010860FE49C1F8AC014FF44050ADF85C
:1052C0000C004FF048008DF80F004FF003008DF8F0
:1052D0000E0003A9F748FBF72DFD0420ADF80C00E4
:1052E00048208DF80F0003208DF80E0003A9F24826
:1052F000FBF720FD1FBD00B587B04FF40070ADF87F
:10530000180003208DF81A0018208DF81B0006A93C
:10531000EA48FBF70FFD4FF48060ADF81800042059
:105320008DF81B0006A9E548FBF704FD4FF4E130BA
:1053300002900020ADF80C00ADF80E00ADF81000A2
:10534000ADF814000C20ADF8120002A9DC48FCF7FF
:1053500080FF25208DF8040004208DF80500002032
:105360008DF8060001208DF8070001A8FBF73BF837
:10537000012240F22551D248FDF703F80121D0481F
:10538000FCF7F3FF07B000BD00B587B00420ADF80F
:10539000180003208DF81A0018208DF81B0006A9AC
:1053A000C648FBF7C7FC0820ADF8180004208DF8AC
:1053B0001B0006A9C148FBF7BDFC4FF4E130029089
:1053C0000020ADF80C00ADF80E00ADF81000ADF8FF
:1053D00014000C20ADF8120002A9BA48FCF739FFFE
:1053E00026208DF8040001208DF8050000208DF89E
:1053F000060001208DF8070001A8FAF7F4FF01224A
:1054000040F22551AF48FCF7BCFF0121AD48FCF745
:10541000ACFF07B000BD00B591B04FF48040FBF782
:10542000C6FE01214802FBF75BFF0320ADF84000F8
:1054300000208DF8430003208DF8420010A99D48FC
:10544000FBF778FCA048FBF75FFAA0480590A0485E
:1054500006900020079002200890002009908020EC
:105460000A9040000B9080000C9020200D900002CC
:105470000E9000200F9005A99348FBF7E7FA012151
:105480009148FBF70EFB0020009001208DF80400EE
:105490008DF805004FF46020029000200390022058
:1054A0008DF81000694689484C38FBF72CF8052325
:1054B00001220A2185484C38FBF7BDF8052302225A
:1054C0000B2182484C38FBF7B6F801217F484C3855
:1054D000FBF750F801217D484C38FBF740F87B483A
:1054E0004C38FBF75EF800BF78484C38FBF75EF8A5
:1054F0000028F9D175484C38FBF762F800BF7348B3
:105500004C38FBF762F80028F9D101216F484C387C
:10551000FBF765F811B000BD30B589B005460C4603
:1055200001216C48FBF7D5FC4FF48070ADF82000EA
:1055300018208DF8230003208DF8220008A95F4869
:10554000FBF7F8FBADF81850ADF814400020ADF8AB
:105550001A00ADF8160005A95F48FBF7FDFF6020B3
:10556000ADF804000120ADF806000420ADF80800F5
:105570000020ADF80A00ADF80C000820ADF80E00D0
:105580000020ADF81000ADF8120001A95248FCF758
:1055900062F808215048FCF774FC01214E48FCF7E2
:1055A00037FB01214C48FCF73FFB09B030BD30B55B
:1055B00089B005460C460320ADF8200018208DF870
:1055C000230003208DF8220008A93C48FBF7B2FB1A
:1055D000ADF81850ADF814400020ADF81A00ADF841
:1055E000160005A93D48FBF7B7FF6020ADF80400A1
:1055F0000120ADF806000420ADF808000020ADF849
:105600000A00ADF80C000820ADF80E000020ADF83F
:105610001000ADF8120001A93048FCF71CF8082171
:105620002E48FCF72EFC01212C48FCF7F1FA012151
:105630002A48FCF7F9FA09B030BD10B5FFF7C0FBF6
:10564000FFF71AFCFFF745FCFFF728FDFFF77CFC8E
:10565000FFF7A5FCFFF7CDFCFFF7DDFEFFF73AF9FA
:1056600010BD10B500201E49086048608860C86001
:105670000861486140211A48183000F09BFB402126
:105680001748583000F096FB40211548983000F03C
:1056900091FB40211248D83000F08CFB00211048CB
:1056A000A0F81811A0F81A11012180F81C1119E0B6
:1056B0000000224200100140001401400008014097
:1056C0000038014000440040080002404C240140E2
:1056D0005444002040001600002C0140000C004003
:1056E000B0410020002180F81E11A0F82011A0F880
:1056F0002211A0F8241180F82611402100F59470A1
:1057000000F058FB4021434800F054FB4021414841
:10571000403000F04FFB40213E48803000F04AFB13
:1057200000213D48A0F82812A0F82A12012180F893
:105730002C12002180F82E12A0F83012A0F832129C
:10574000A0F8341280F83612122100F23E2000F048
:1057500031FB12212F48E83000F02CFB12212D489C
:10576000FA3000F027FB12212C4800F023FB122115
:105770002A48123000F01EFB274890F8380220F02B
:105780000100254981F83802084690F8380220F0D7
:10579000020081F83802084690F8380220F00C0028
:1057A00081F8380200211C4880F8391280F83A123A
:1057B00080F83B1290F83C0220F00101164880F876
:1057C0003C1290F83C0220F00201134880F83C1291
:1057D000002180F83D1290F89D0220F001010E4852
:1057E00080F89D1290F89D0220F01E010A4880F872
:1057F0009D120021A0F89E1280F8A01280F8A1123C
:1058000080F8A21210BD10B5FFF717FFFFF729FFB0
:1058100010BD000018430020B041002024440020A7
:105820001CB5114803210023C022CDE900100FA1AF
:105830001148FDF7D6F8114801210023C022CDE917
:1058400000100FA11148FDF7CCF81CBD704710B532
:10585000FFF7D9FFFFF7FAFFFFF7E2FFFDF7EDFCD7
:10586000002010BD70470000A400002054696D6541
:10587000725461736B000000AB490008A80000205F
:10588000546573745461736B000000005F4A000834
:10589000704700BFFEE700BFFEE700BFFEE700BFA6
:1058A000FEE7704710B54FF40060FBF7C9F9A8B1E7
:1058B000FE4890F8A20210F0010F0BD00220FEF774
:1058C00032FDFA4890F86202C0F3C00010B1022025
:1058D000FEF7A3FE4FF40060FBF7C3F94FF48050CE
:1058E000FBF7AEF9A8B1F14890F8A20210F0010F51
:1058F0000BD00320FEF717FDEC4890F87402C0F3BC
:10590000C00010B10320FEF788FE4FF48050FBF773
:10591000A8F94FF40040FBF793F9A8B1E34890F8D9
:10592000A20210F0010F0BD00120FEF7FCFCDF48B3
:1059300090F85002C0F3C00010B10120FEF76DFED8
:105940004FF40040FBF78DF910BD10B50121880719
:10595000FCF727FC60B1D5480068401CD3490860BB
:1059600008460068D249884202D30020CF49086027
:1059700001218807FCF726FC10BD10B50121CD4898
:10598000FCF70FFC002879D0C8480069401CC749C3
:10599000086108460069C649884202D30020C3490D
:1059A0000861C24890F8A20210F0010FEBD000216C
:1059B000BE4880F8A112C9E0BC4890F8A10200EBF3
:1059C000C001BD4800EB4100C07910F0010F29D0A3
:1059D000B64890F8A10200EBC001B74800EB4100C7
:1059E0000089002814DDB14890F8A10200EBC00145
:1059F000B14800EB41000089401E81B2AB4890F8ED
:105A0000A10200EBC002AC4800EB4200018109E0BA
:105A10000021A64890F8A10200EBC002A64800EBC6
:105A20004200C171A14890F8A10200EBC001A24858
:105A300000EB4100807A10F0010F2AD09B4890F8CB
:105A4000A10200EBC0019C4800EB410080890028C6
:105A500015DD964890F8A10200EBC001964800EBD6
:105A600041008089401E81B2904890F8A10200EB6D
:105A7000C002914800EB420081810AE06CE0002105
:105A80008A4890F8A10200EBC0028B4800EB42006C
:105A90008172864890F8A10200EBC001864800EBB5
:105AA0004100807B10F0010F29D0804890F8A102BE
:105AB00000EBC001804800EB4100008A002814DDA3
:105AC0007A4890F8A10200EBC0017B4800EB41004E
:105AD000008A401E81B2754890F8A10200EBC00216
